{
  "_format": "hh-sol-artifact-1",
  "contractName": "Colors",
  "sourceName": "contracts/Colors.sol",
  "abi": [
    {
      "inputs": [],
      "stateMutability": "nonpayable",
      "type": "constructor"
    },
    {
      "anonymous": false,
      "inputs": [
        {
          "indexed": true,
          "internalType": "address",
          "name": "owner",
          "type": "address"
        },
        {
          "indexed": true,
          "internalType": "address",
          "name": "approved",
          "type": "address"
        },
        {
          "indexed": true,
          "internalType": "uint256",
          "name": "tokenId",
          "type": "uint256"
        }
      ],
      "name": "Approval",
      "type": "event"
    },
    {
      "anonymous": false,
      "inputs": [
        {
          "indexed": true,
          "internalType": "address",
          "name": "owner",
          "type": "address"
        },
        {
          "indexed": true,
          "internalType": "address",
          "name": "operator",
          "type": "address"
        },
        {
          "indexed": false,
          "internalType": "bool",
          "name": "approved",
          "type": "bool"
        }
      ],
      "name": "ApprovalForAll",
      "type": "event"
    },
    {
      "anonymous": false,
      "inputs": [
        {
          "indexed": false,
          "internalType": "uint256",
          "name": "tokenId",
          "type": "uint256"
        }
      ],
      "name": "MintedNFT",
      "type": "event"
    },
    {
      "anonymous": false,
      "inputs": [
        {
          "indexed": true,
          "internalType": "address",
          "name": "from",
          "type": "address"
        },
        {
          "indexed": true,
          "internalType": "address",
          "name": "to",
          "type": "address"
        },
        {
          "indexed": true,
          "internalType": "uint256",
          "name": "tokenId",
          "type": "uint256"
        }
      ],
      "name": "Transfer",
      "type": "event"
    },
    {
      "inputs": [
        {
          "internalType": "address",
          "name": "to",
          "type": "address"
        },
        {
          "internalType": "uint256",
          "name": "tokenId",
          "type": "uint256"
        }
      ],
      "name": "approve",
      "outputs": [],
      "stateMutability": "nonpayable",
      "type": "function"
    },
    {
      "inputs": [
        {
          "internalType": "address",
          "name": "owner",
          "type": "address"
        }
      ],
      "name": "balanceOf",
      "outputs": [
        {
          "internalType": "uint256",
          "name": "",
          "type": "uint256"
        }
      ],
      "stateMutability": "view",
      "type": "function"
    },
    {
      "inputs": [
        {
          "internalType": "uint256",
          "name": "tokenId",
          "type": "uint256"
        }
      ],
      "name": "getApproved",
      "outputs": [
        {
          "internalType": "address",
          "name": "",
          "type": "address"
        }
      ],
      "stateMutability": "view",
      "type": "function"
    },
    {
      "inputs": [
        {
          "internalType": "address",
          "name": "owner",
          "type": "address"
        },
        {
          "internalType": "address",
          "name": "operator",
          "type": "address"
        }
      ],
      "name": "isApprovedForAll",
      "outputs": [
        {
          "internalType": "bool",
          "name": "",
          "type": "bool"
        }
      ],
      "stateMutability": "view",
      "type": "function"
    },
    {
      "inputs": [],
      "name": "mint",
      "outputs": [],
      "stateMutability": "nonpayable",
      "type": "function"
    },
    {
      "inputs": [],
      "name": "name",
      "outputs": [
        {
          "internalType": "string",
          "name": "",
          "type": "string"
        }
      ],
      "stateMutability": "view",
      "type": "function"
    },
    {
      "inputs": [
        {
          "internalType": "uint256",
          "name": "tokenId",
          "type": "uint256"
        }
      ],
      "name": "ownerOf",
      "outputs": [
        {
          "internalType": "address",
          "name": "",
          "type": "address"
        }
      ],
      "stateMutability": "view",
      "type": "function"
    },
    {
      "inputs": [
        {
          "internalType": "address",
          "name": "from",
          "type": "address"
        },
        {
          "internalType": "address",
          "name": "to",
          "type": "address"
        },
        {
          "internalType": "uint256",
          "name": "tokenId",
          "type": "uint256"
        }
      ],
      "name": "safeTransferFrom",
      "outputs": [],
      "stateMutability": "nonpayable",
      "type": "function"
    },
    {
      "inputs": [
        {
          "internalType": "address",
          "name": "from",
          "type": "address"
        },
        {
          "internalType": "address",
          "name": "to",
          "type": "address"
        },
        {
          "internalType": "uint256",
          "name": "tokenId",
          "type": "uint256"
        },
        {
          "internalType": "bytes",
          "name": "data",
          "type": "bytes"
        }
      ],
      "name": "safeTransferFrom",
      "outputs": [],
      "stateMutability": "nonpayable",
      "type": "function"
    },
    {
      "inputs": [
        {
          "internalType": "address",
          "name": "operator",
          "type": "address"
        },
        {
          "internalType": "bool",
          "name": "approved",
          "type": "bool"
        }
      ],
      "name": "setApprovalForAll",
      "outputs": [],
      "stateMutability": "nonpayable",
      "type": "function"
    },
    {
      "inputs": [
        {
          "internalType": "bytes4",
          "name": "interfaceId",
          "type": "bytes4"
        }
      ],
      "name": "supportsInterface",
      "outputs": [
        {
          "internalType": "bool",
          "name": "",
          "type": "bool"
        }
      ],
      "stateMutability": "view",
      "type": "function"
    },
    {
      "inputs": [],
      "name": "symbol",
      "outputs": [
        {
          "internalType": "string",
          "name": "",
          "type": "string"
        }
      ],
      "stateMutability": "view",
      "type": "function"
    },
    {
      "inputs": [],
      "name": "tokenIds",
      "outputs": [
        {
          "internalType": "uint256",
          "name": "_value",
          "type": "uint256"
        }
      ],
      "stateMutability": "view",
      "type": "function"
    },
    {
      "inputs": [
        {
          "internalType": "uint256",
          "name": "tokenId",
          "type": "uint256"
        }
      ],
      "name": "tokenURI",
      "outputs": [
        {
          "internalType": "string",
          "name": "",
          "type": "string"
        }
      ],
      "stateMutability": "view",
      "type": "function"
    },
    {
      "inputs": [
        {
          "internalType": "address",
          "name": "from",
          "type": "address"
        },
        {
          "internalType": "address",
          "name": "to",
          "type": "address"
        },
        {
          "internalType": "uint256",
          "name": "tokenId",
          "type": "uint256"
        }
      ],
      "name": "transferFrom",
      "outputs": [],
      "stateMutability": "nonpayable",
      "type": "function"
    }
  ],
  "bytecode": "0x60806040526040518061010001604052806040518060400160405280600381526020017f726564000000000000000000000000000000000000000000000000000000000081525081526020016040518060400160405280600481526020017f626c75650000000000000000000000000000000000000000000000000000000081525081526020016040518060400160405280600581526020017f677265656e00000000000000000000000000000000000000000000000000000081525081526020016040518060400160405280600681526020017f79656c6c6f77000000000000000000000000000000000000000000000000000081525081526020016040518060400160405280600681526020017f707572706c65000000000000000000000000000000000000000000000000000081525081526020016040518060400160405280600681526020017f76696f6c6574000000000000000000000000000000000000000000000000000081525081526020016040518060400160405280600581526020017f626c61636b00000000000000000000000000000000000000000000000000000081525081526020016040518060400160405280600581526020017f77686974650000000000000000000000000000000000000000000000000000008152508152506008906008620001f892919062000477565b5060405180610100016040528060d38152602001620037c960d39139600990805190602001906200022b929190620004de565b506040518060800160405280605781526020016200389c60579139600a90805190602001906200025d929190620004de565b506040518060400160405280600d81526020017f3c2f746578743e3c2f7376673e00000000000000000000000000000000000000815250600b9080519060200190620002ab929190620004de565b50348015620002b957600080fd5b506040518060400160405280600681526020017f436f6c6f727300000000000000000000000000000000000000000000000000008152506040518060400160405280600381526020017f434f4c000000000000000000000000000000000000000000000000000000000081525081600090805190602001906200033e929190620004de565b50806001908051906020019062000357929190620004de565b505050620003a56040518060400160405280602081526020017f696e69742045524337323120636f6e7472616374206372656174696f6e2e2e2e815250620003ab60201b62000af71760201c565b62000729565b6200044b81604051602401620003c29190620006a0565b6040516020818303038152906040527f41304fac000000000000000000000000000000000000000000000000000000007bffffffffffffffffffffffffffffffffffffffffffffffffffffffff19166020820180517bffffffffffffffffffffffffffffffffffffffffffffffffffffffff83818316178352505050506200044e60201b60201c565b50565b60008151905060006a636f6e736f6c652e6c6f679050602083016000808483855afa5050505050565b828054828255906000526020600020908101928215620004cb579160200282015b82811115620004ca578251829080519060200190620004b9929190620004de565b509160200191906001019062000498565b5b509050620004da91906200056f565b5090565b828054620004ec90620006f3565b90600052602060002090601f0160209004810192826200051057600085556200055c565b82601f106200052b57805160ff19168380011785556200055c565b828001600101855582156200055c579182015b828111156200055b5782518255916020019190600101906200053e565b5b5090506200056b919062000597565b5090565b5b80821115620005935760008181620005899190620005b6565b5060010162000570565b5090565b5b80821115620005b257600081600090555060010162000598565b5090565b508054620005c490620006f3565b6000825580601f10620005d85750620005f9565b601f016020900490600052602060002090810190620005f8919062000597565b5b50565b600081519050919050565b600082825260208201905092915050565b60005b83811015620006385780820151818401526020810190506200061b565b8381111562000648576000848401525b50505050565b6000601f19601f8301169050919050565b60006200066c82620005fc565b62000678818562000607565b93506200068a81856020860162000618565b62000695816200064e565b840191505092915050565b60006020820190508181036000830152620006bc81846200065f565b905092915050565b7f4e487b7100000000000000000000000000000000000000000000000000000000600052602260045260246000fd5b600060028204905060018216806200070c57607f821691505b60208210811415620007235762000722620006c4565b5b50919050565b61309080620007396000396000f3fe608060405234801561001057600080fd5b50600436106100f55760003560e01c80636352211e11610097578063a22cb46511610066578063a22cb46514610272578063b88d4fde1461028e578063c87b56dd146102aa578063e985e9c5146102da576100f5565b80636352211e146101d657806370a0823114610206578063714cff561461023657806395d89b4114610254576100f5565b8063095ea7b3116100d3578063095ea7b3146101785780631249c58b1461019457806323b872dd1461019e57806342842e0e146101ba576100f5565b806301ffc9a7146100fa57806306fdde031461012a578063081812fc14610148575b600080fd5b610114600480360381019061010f9190611d26565b61030a565b6040516101219190611d6e565b60405180910390f35b6101326103ec565b60405161013f9190611e22565b60405180910390f35b610162600480360381019061015d9190611e7a565b61047e565b60405161016f9190611ee8565b60405180910390f35b610192600480360381019061018d9190611f2f565b6104c4565b005b61019c6105dc565b005b6101b860048036038101906101b39190611f6f565b610650565b005b6101d460048036038101906101cf9190611f6f565b6106b0565b005b6101f060048036038101906101eb9190611e7a565b6106d0565b6040516101fd9190611ee8565b60405180910390f35b610220600480360381019061021b9190611fc2565b610782565b60405161022d9190611ffe565b60405180910390f35b61023e61083a565b60405161024b9190611ffe565b60405180910390f35b61025c610846565b6040516102699190611e22565b60405180910390f35b61028c60048036038101906102879190612045565b6108d8565b005b6102a860048036038101906102a391906121ba565b6108ee565b005b6102c460048036038101906102bf9190611e7a565b610950565b6040516102d19190611e22565b60405180910390f35b6102f460048036038101906102ef919061223d565b610a63565b6040516103019190611d6e565b60405180910390f35b60007f80ac58cd000000000000000000000000000000000000000000000000000000007bffffffffffffffffffffffffffffffffffffffffffffffffffffffff1916827bffffffffffffffffffffffffffffffffffffffffffffffffffffffff191614806103d557507f5b5e139f000000000000000000000000000000000000000000000000000000007bffffffffffffffffffffffffffffffffffffffffffffffffffffffff1916827bffffffffffffffffffffffffffffffffffffffffffffffffffffffff1916145b806103e557506103e482610b90565b5b9050919050565b6060600080546103fb906122ac565b80601f0160208091040260200160405190810160405280929190818152602001828054610427906122ac565b80156104745780601f1061044957610100808354040283529160200191610474565b820191906000526020600020905b81548152906001019060200180831161045757829003601f168201915b5050505050905090565b600061048982610bfa565b6004600083815260200190815260200160002060009054906101000a900473ffffffffffffffffffffffffffffffffffffffff169050919050565b60006104cf826106d0565b90508073ffffffffffffffffffffffffffffffffffffffff168373ffffffffffffffffffffffffffffffffffffffff161415610540576040517f08c379a000000000000000000000000000000000000000000000000000000000815260040161053790612350565b60405180910390fd5b8073ffffffffffffffffffffffffffffffffffffffff1661055f610c45565b73ffffffffffffffffffffffffffffffffffffffff16148061058e575061058d81610588610c45565b610a63565b5b6105cd576040517f08c379a00000000000000000000000000000000000000000000000000000000081526004016105c4906123e2565b60405180910390fd5b6105d78383610c4d565b505050565b60006105e86007610d06565b90506105f43382610d14565b60006105ff82610d32565b905061060b8282610dae565b7f26ae4e620eb483fe1586942ebe7c6d3c1b59848ebc62a32cc42e116857f0d18c8260405161063a9190611ffe565b60405180910390a161064c6007610e22565b5050565b61066161065b610c45565b82610e38565b6106a0576040517f08c379a000000000000000000000000000000000000000000000000000000000815260040161069790612474565b60405180910390fd5b6106ab838383610ecd565b505050565b6106cb838383604051806020016040528060008152506108ee565b505050565b6000806002600084815260200190815260200160002060009054906101000a900473ffffffffffffffffffffffffffffffffffffffff169050600073ffffffffffffffffffffffffffffffffffffffff168173ffffffffffffffffffffffffffffffffffffffff161415610779576040517f08c379a0000000000000000000000000000000000000000000000000000000008152600401610770906124e0565b60405180910390fd5b80915050919050565b60008073ffffffffffffffffffffffffffffffffffffffff168273ffffffffffffffffffffffffffffffffffffffff1614156107f3576040517f08c379a00000000000000000000000000000000000000000000000000000000081526004016107ea90612572565b60405180910390fd5b600360008373ffffffffffffffffffffffffffffffffffffffff1673ffffffffffffffffffffffffffffffffffffffff168152602001908152602001600020549050919050565b60078060000154905081565b606060018054610855906122ac565b80601f0160208091040260200160405190810160405280929190818152602001828054610881906122ac565b80156108ce5780601f106108a3576101008083540402835291602001916108ce565b820191906000526020600020905b8154815290600101906020018083116108b157829003601f168201915b5050505050905090565b6108ea6108e3610c45565b8383611134565b5050565b6108ff6108f9610c45565b83610e38565b61093e576040517f08c379a000000000000000000000000000000000000000000000000000000000815260040161093590612474565b60405180910390fd5b61094a848484846112a1565b50505050565b606061095b82610bfa565b600060066000848152602001908152602001600020805461097b906122ac565b80601f01602080910402602001604051908101604052809291908181526020018280546109a7906122ac565b80156109f45780601f106109c9576101008083540402835291602001916109f4565b820191906000526020600020905b8154815290600101906020018083116109d757829003601f168201915b505050505090506000610a056112fd565b9050600081511415610a1b578192505050610a5e565b600082511115610a50578082604051602001610a389291906125ce565b60405160208183030381529060405292505050610a5e565b610a5984611314565b925050505b919050565b6000600560008473ffffffffffffffffffffffffffffffffffffffff1673ffffffffffffffffffffffffffffffffffffffff16815260200190815260200160002060008373ffffffffffffffffffffffffffffffffffffffff1673ffffffffffffffffffffffffffffffffffffffff16815260200190815260200160002060009054906101000a900460ff16905092915050565b610b8d81604051602401610b0b9190611e22565b6040516020818303038152906040527f41304fac000000000000000000000000000000000000000000000000000000007bffffffffffffffffffffffffffffffffffffffffffffffffffffffff19166020820180517bffffffffffffffffffffffffffffffffffffffffffffffffffffffff838183161783525050505061137c565b50565b60007f01ffc9a7000000000000000000000000000000000000000000000000000000007bffffffffffffffffffffffffffffffffffffffffffffffffffffffff1916827bffffffffffffffffffffffffffffffffffffffffffffffffffffffff1916149050919050565b610c03816113a5565b610c42576040517f08c379a0000000000000000000000000000000000000000000000000000000008152600401610c39906124e0565b60405180910390fd5b50565b600033905090565b816004600083815260200190815260200160002060006101000a81548173ffffffffffffffffffffffffffffffffffffffff021916908373ffffffffffffffffffffffffffffffffffffffff160217905550808273ffffffffffffffffffffffffffffffffffffffff16610cc0836106d0565b73ffffffffffffffffffffffffffffffffffffffff167f8c5be1e5ebec7d5bd14f71427d1e84f3dd0314c0f7b2291e5b200ac8c7c3b92560405160405180910390a45050565b600081600001549050919050565b610d2e828260405180602001604052806000815250611411565b5050565b60606000610d3f8361146c565b90506000610d4c82611580565b9050600082610d5a836115b4565b604051602001610d6b929190612748565b6040516020818303038152906040529050610d85816115b4565b604051602001610d9591906127e4565b6040516020818303038152906040529350505050919050565b610db7826113a5565b610df6576040517f08c379a0000000000000000000000000000000000000000000000000000000008152600401610ded90612878565b60405180910390fd5b80600660008481526020019081526020016000209080519060200190610e1d929190611c17565b505050565b6001816000016000828254019250508190555050565b600080610e44836106d0565b90508073ffffffffffffffffffffffffffffffffffffffff168473ffffffffffffffffffffffffffffffffffffffff161480610e865750610e858185610a63565b5b80610ec457508373ffffffffffffffffffffffffffffffffffffffff16610eac8461047e565b73ffffffffffffffffffffffffffffffffffffffff16145b91505092915050565b8273ffffffffffffffffffffffffffffffffffffffff16610eed826106d0565b73ffffffffffffffffffffffffffffffffffffffff1614610f43576040517f08c379a0000000000000000000000000000000000000000000000000000000008152600401610f3a9061290a565b60405180910390fd5b600073ffffffffffffffffffffffffffffffffffffffff168273ffffffffffffffffffffffffffffffffffffffff161415610fb3576040517f08c379a0000000000000000000000000000000000000000000000000000000008152600401610faa9061299c565b60405180910390fd5b610fbe838383611718565b610fc9600082610c4d565b6001600360008573ffffffffffffffffffffffffffffffffffffffff1673ffffffffffffffffffffffffffffffffffffffff168152602001908152602001600020600082825461101991906129eb565b925050819055506001600360008473ffffffffffffffffffffffffffffffffffffffff1673ffffffffffffffffffffffffffffffffffffffff16815260200190815260200160002060008282546110709190612a1f565b92505081905550816002600083815260200190815260200160002060006101000a81548173ffffffffffffffffffffffffffffffffffffffff021916908373ffffffffffffffffffffffffffffffffffffffff160217905550808273ffffffffffffffffffffffffffffffffffffffff168473ffffffffffffffffffffffffffffffffffffffff167fddf252ad1be2c89b69c2b068fc378daa952ba7f163c4a11628f55a4df523b3ef60405160405180910390a461112f83838361171d565b505050565b8173ffffffffffffffffffffffffffffffffffffffff168373ffffffffffffffffffffffffffffffffffffffff1614156111a3576040517f08c379a000000000000000000000000000000000000000000000000000000000815260040161119a90612ac1565b60405180910390fd5b80600560008573ffffffffffffffffffffffffffffffffffffffff1673ffffffffffffffffffffffffffffffffffffffff16815260200190815260200160002060008473ffffffffffffffffffffffffffffffffffffffff1673ffffffffffffffffffffffffffffffffffffffff16815260200190815260200160002060006101000a81548160ff0219169083151502179055508173ffffffffffffffffffffffffffffffffffffffff168373ffffffffffffffffffffffffffffffffffffffff167f17307eab39ab6107e8899845ad3d59bd9653f200f220920489ca2b5937696c31836040516112949190611d6e565b60405180910390a3505050565b6112ac848484610ecd565b6112b884848484611722565b6112f7576040517f08c379a00000000000000000000000000000000000000000000000000000000081526004016112ee90612b53565b60405180910390fd5b50505050565b606060405180602001604052806000815250905090565b606061131f82610bfa565b60006113296112fd565b905060008151116113495760405180602001604052806000815250611374565b80611353846118b9565b6040516020016113649291906125ce565b6040516020818303038152906040525b915050919050565b60008151905060006a636f6e736f6c652e6c6f679050602083016000808483855afa5050505050565b60008073ffffffffffffffffffffffffffffffffffffffff166002600084815260200190815260200160002060009054906101000a900473ffffffffffffffffffffffffffffffffffffffff1673ffffffffffffffffffffffffffffffffffffffff1614159050919050565b61141b8383611a1a565b6114286000848484611722565b611467576040517f08c379a000000000000000000000000000000000000000000000000000000000815260040161145e90612b53565b60405180910390fd5b505050565b60606000826040516020016114819190612be0565b6040516020818303038152906040526040516020016114a09190612c06565b6040516020818303038152906040528051906020012060001c90506000600880549050826114ce9190612c4c565b9050600881815481106114e4576114e3612c7d565b5b9060005260206000200180546114f9906122ac565b80601f0160208091040260200160405190810160405280929190818152602001828054611525906122ac565b80156115725780601f1061154757610100808354040283529160200191611572565b820191906000526020600020905b81548152906001019060200180831161155557829003601f168201915b505050505092505050919050565b6060600982600a84600b60405160200161159e959493929190612d40565b6040516020818303038152906040529050919050565b60606000825114156115d757604051806020016040528060008152509050611713565b600060405180606001604052806040815260200161301b60409139905060006003600285516116069190612a1f565b6116109190612d8b565b600461161c9190612dbc565b67ffffffffffffffff8111156116355761163461208f565b5b6040519080825280601f01601f1916602001820160405280156116675781602001600182028036833780820191505090505b509050600182016020820185865187015b808210156116d3576003820191508151603f8160121c168501518453600184019350603f81600c1c168501518453600184019350603f8160061c168501518453600184019350603f8116850151845360018401935050611678565b50506003865106600181146116ef57600281146117025761170a565b603d6001830353603d600283035361170a565b603d60018303535b50505080925050505b919050565b505050565b505050565b60006117438473ffffffffffffffffffffffffffffffffffffffff16611bf4565b156118ac578373ffffffffffffffffffffffffffffffffffffffff1663150b7a0261176c610c45565b8786866040518563ffffffff1660e01b815260040161178e9493929190612e6b565b602060405180830381600087803b1580156117a857600080fd5b505af19250505080156117d957506040513d601f19601f820116820180604052508101906117d69190612ecc565b60015b61185c573d8060008114611809576040519150601f19603f3d011682016040523d82523d6000602084013e61180e565b606091505b50600081511415611854576040517f08c379a000000000000000000000000000000000000000000000000000000000815260040161184b90612b53565b60405180910390fd5b805181602001fd5b63150b7a0260e01b7bffffffffffffffffffffffffffffffffffffffffffffffffffffffff1916817bffffffffffffffffffffffffffffffffffffffffffffffffffffffff1916149150506118b1565b600190505b949350505050565b60606000821415611901576040518060400160405280600181526020017f30000000000000000000000000000000000000000000000000000000000000008152509050611a15565b600082905060005b6000821461193357808061191c90612ef9565b915050600a8261192c9190612d8b565b9150611909565b60008167ffffffffffffffff81111561194f5761194e61208f565b5b6040519080825280601f01601f1916602001820160405280156119815781602001600182028036833780820191505090505b5090505b60008514611a0e5760018261199a91906129eb565b9150600a856119a99190612c4c565b60306119b59190612a1f565b60f81b8183815181106119cb576119ca612c7d565b5b60200101907effffffffffffffffffffffffffffffffffffffffffffffffffffffffffffff1916908160001a905350600a85611a079190612d8b565b9450611985565b8093505050505b919050565b600073ffffffffffffffffffffffffffffffffffffffff168273ffffffffffffffffffffffffffffffffffffffff161415611a8a576040517f08c379a0000000000000000000000000000000000000000000000000000000008152600401611a8190612f8e565b60405180910390fd5b611a93816113a5565b15611ad3576040517f08c379a0000000000000000000000000000000000000000000000000000000008152600401611aca90612ffa565b60405180910390fd5b611adf60008383611718565b6001600360008473ffffffffffffffffffffffffffffffffffffffff1673ffffffffffffffffffffffffffffffffffffffff1681526020019081526020016000206000828254611b2f9190612a1f565b92505081905550816002600083815260200190815260200160002060006101000a81548173ffffffffffffffffffffffffffffffffffffffff021916908373ffffffffffffffffffffffffffffffffffffffff160217905550808273ffffffffffffffffffffffffffffffffffffffff16600073ffffffffffffffffffffffffffffffffffffffff167fddf252ad1be2c89b69c2b068fc378daa952ba7f163c4a11628f55a4df523b3ef60405160405180910390a4611bf06000838361171d565b5050565b6000808273ffffffffffffffffffffffffffffffffffffffff163b119050919050565b828054611c23906122ac565b90600052602060002090601f016020900481019282611c455760008555611c8c565b82601f10611c5e57805160ff1916838001178555611c8c565b82800160010185558215611c8c579182015b82811115611c8b578251825591602001919060010190611c70565b5b509050611c999190611c9d565b5090565b5b80821115611cb6576000816000905550600101611c9e565b5090565b6000604051905090565b600080fd5b600080fd5b60007fffffffff0000000000000000000000000000000000000000000000000000000082169050919050565b611d0381611cce565b8114611d0e57600080fd5b50565b600081359050611d2081611cfa565b92915050565b600060208284031215611d3c57611d3b611cc4565b5b6000611d4a84828501611d11565b91505092915050565b60008115159050919050565b611d6881611d53565b82525050565b6000602082019050611d836000830184611d5f565b92915050565b600081519050919050565b600082825260208201905092915050565b60005b83811015611dc3578082015181840152602081019050611da8565b83811115611dd2576000848401525b50505050565b6000601f19601f8301169050919050565b6000611df482611d89565b611dfe8185611d94565b9350611e0e818560208601611da5565b611e1781611dd8565b840191505092915050565b60006020820190508181036000830152611e3c8184611de9565b905092915050565b6000819050919050565b611e5781611e44565b8114611e6257600080fd5b50565b600081359050611e7481611e4e565b92915050565b600060208284031215611e9057611e8f611cc4565b5b6000611e9e84828501611e65565b91505092915050565b600073ffffffffffffffffffffffffffffffffffffffff82169050919050565b6000611ed282611ea7565b9050919050565b611ee281611ec7565b82525050565b6000602082019050611efd6000830184611ed9565b92915050565b611f0c81611ec7565b8114611f1757600080fd5b50565b600081359050611f2981611f03565b92915050565b60008060408385031215611f4657611f45611cc4565b5b6000611f5485828601611f1a565b9250506020611f6585828601611e65565b9150509250929050565b600080600060608486031215611f8857611f87611cc4565b5b6000611f9686828701611f1a565b9350506020611fa786828701611f1a565b9250506040611fb886828701611e65565b9150509250925092565b600060208284031215611fd857611fd7611cc4565b5b6000611fe684828501611f1a565b91505092915050565b611ff881611e44565b82525050565b60006020820190506120136000830184611fef565b92915050565b61202281611d53565b811461202d57600080fd5b50565b60008135905061203f81612019565b92915050565b6000806040838503121561205c5761205b611cc4565b5b600061206a85828601611f1a565b925050602061207b85828601612030565b9150509250929050565b600080fd5b600080fd5b7f4e487b7100000000000000000000000000000000000000000000000000000000600052604160045260246000fd5b6120c782611dd8565b810181811067ffffffffffffffff821117156120e6576120e561208f565b5b80604052505050565b60006120f9611cba565b905061210582826120be565b919050565b600067ffffffffffffffff8211156121255761212461208f565b5b61212e82611dd8565b9050602081019050919050565b82818337600083830152505050565b600061215d6121588461210a565b6120ef565b9050828152602081018484840111156121795761217861208a565b5b61218484828561213b565b509392505050565b600082601f8301126121a1576121a0612085565b5b81356121b184826020860161214a565b91505092915050565b600080600080608085870312156121d4576121d3611cc4565b5b60006121e287828801611f1a565b94505060206121f387828801611f1a565b935050604061220487828801611e65565b925050606085013567ffffffffffffffff81111561222557612224611cc9565b5b6122318782880161218c565b91505092959194509250565b6000806040838503121561225457612253611cc4565b5b600061226285828601611f1a565b925050602061227385828601611f1a565b9150509250929050565b7f4e487b7100000000000000000000000000000000000000000000000000000000600052602260045260246000fd5b600060028204905060018216806122c457607f821691505b602082108114156122d8576122d761227d565b5b50919050565b7f4552433732313a20617070726f76616c20746f2063757272656e74206f776e6560008201527f7200000000000000000000000000000000000000000000000000000000000000602082015250565b600061233a602183611d94565b9150612345826122de565b604082019050919050565b600060208201905081810360008301526123698161232d565b9050919050565b7f4552433732313a20617070726f76652063616c6c6572206973206e6f7420746f60008201527f6b656e206f776e6572206e6f7220617070726f76656420666f7220616c6c0000602082015250565b60006123cc603e83611d94565b91506123d782612370565b604082019050919050565b600060208201905081810360008301526123fb816123bf565b9050919050565b7f4552433732313a2063616c6c6572206973206e6f7420746f6b656e206f776e6560008201527f72206e6f7220617070726f766564000000000000000000000000000000000000602082015250565b600061245e602e83611d94565b915061246982612402565b604082019050919050565b6000602082019050818103600083015261248d81612451565b9050919050565b7f4552433732313a20696e76616c696420746f6b656e2049440000000000000000600082015250565b60006124ca601883611d94565b91506124d582612494565b602082019050919050565b600060208201905081810360008301526124f9816124bd565b9050919050565b7f4552433732313a2061646472657373207a65726f206973206e6f74206120766160008201527f6c6964206f776e65720000000000000000000000000000000000000000000000602082015250565b600061255c602983611d94565b915061256782612500565b604082019050919050565b6000602082019050818103600083015261258b8161254f565b9050919050565b600081905092915050565b60006125a882611d89565b6125b28185612592565b93506125c2818560208601611da5565b80840191505092915050565b60006125da828561259d565b91506125e6828461259d565b91508190509392505050565b7f7b20226e616d65223a2022000000000000000000000000000000000000000000600082015250565b6000612628600b83612592565b9150612633826125f2565b600b82019050919050565b7f222c000000000000000000000000000000000000000000000000000000000000600082015250565b6000612674600283612592565b915061267f8261263e565b600282019050919050565b7f22696d61676522203a22646174613a696d6167652f7376672b786d6c3b62617360008201527f6536342c00000000000000000000000000000000000000000000000000000000602082015250565b60006126e6602483612592565b91506126f18261268a565b602482019050919050565b7f227d000000000000000000000000000000000000000000000000000000000000600082015250565b6000612732600283612592565b915061273d826126fc565b600282019050919050565b60006127538261261b565b915061275f828561259d565b915061276a82612667565b9150612775826126d9565b9150612781828461259d565b915061278c82612725565b91508190509392505050565b7f646174613a6170706c69636174696f6e2f6a736f6e3b6261736536342c000000600082015250565b60006127ce601d83612592565b91506127d982612798565b601d82019050919050565b60006127ef826127c1565b91506127fb828461259d565b915081905092915050565b7f45524337323155524953746f726167653a2055524920736574206f66206e6f6e60008201527f6578697374656e7420746f6b656e000000000000000000000000000000000000602082015250565b6000612862602e83611d94565b915061286d82612806565b604082019050919050565b6000602082019050818103600083015261289181612855565b9050919050565b7f4552433732313a207472616e736665722066726f6d20696e636f72726563742060008201527f6f776e6572000000000000000000000000000000000000000000000000000000602082015250565b60006128f4602583611d94565b91506128ff82612898565b604082019050919050565b60006020820190508181036000830152612923816128e7565b9050919050565b7f4552433732313a207472616e7366657220746f20746865207a65726f2061646460008201527f7265737300000000000000000000000000000000000000000000000000000000602082015250565b6000612986602483611d94565b91506129918261292a565b604082019050919050565b600060208201905081810360008301526129b581612979565b9050919050565b7f4e487b7100000000000000000000000000000000000000000000000000000000600052601160045260246000fd5b60006129f682611e44565b9150612a0183611e44565b925082821015612a1457612a136129bc565b5b828203905092915050565b6000612a2a82611e44565b9150612a3583611e44565b9250827fffffffffffffffffffffffffffffffffffffffffffffffffffffffffffffffff03821115612a6a57612a696129bc565b5b828201905092915050565b7f4552433732313a20617070726f766520746f2063616c6c657200000000000000600082015250565b6000612aab601983611d94565b9150612ab682612a75565b602082019050919050565b60006020820190508181036000830152612ada81612a9e565b9050919050565b7f4552433732313a207472616e7366657220746f206e6f6e20455243373231526560008201527f63656976657220696d706c656d656e7465720000000000000000000000000000602082015250565b6000612b3d603283611d94565b9150612b4882612ae1565b604082019050919050565b60006020820190508181036000830152612b6c81612b30565b9050919050565b7f4e554d4245520000000000000000000000000000000000000000000000000000600082015250565b6000612ba9600683612592565b9150612bb482612b73565b600682019050919050565b6000819050919050565b612bda612bd582611e44565b612bbf565b82525050565b6000612beb82612b9c565b9150612bf78284612bc9565b60208201915081905092915050565b6000612c12828461259d565b915081905092915050565b7f4e487b7100000000000000000000000000000000000000000000000000000000600052601260045260246000fd5b6000612c5782611e44565b9150612c6283611e44565b925082612c7257612c71612c1d565b5b828206905092915050565b7f4e487b7100000000000000000000000000000000000000000000000000000000600052603260045260246000fd5b60008190508160005260206000209050919050565b60008154612cce816122ac565b612cd88186612592565b94506001821660008114612cf35760018114612d0457612d37565b60ff19831686528186019350612d37565b612d0d85612cac565b60005b83811015612d2f57815481890152600182019150602081019050612d10565b838801955050505b50505092915050565b6000612d4c8288612cc1565b9150612d58828761259d565b9150612d648286612cc1565b9150612d70828561259d565b9150612d7c8284612cc1565b91508190509695505050505050565b6000612d9682611e44565b9150612da183611e44565b925082612db157612db0612c1d565b5b828204905092915050565b6000612dc782611e44565b9150612dd283611e44565b9250817fffffffffffffffffffffffffffffffffffffffffffffffffffffffffffffffff0483118215151615612e0b57612e0a6129bc565b5b828202905092915050565b600081519050919050565b600082825260208201905092915050565b6000612e3d82612e16565b612e478185612e21565b9350612e57818560208601611da5565b612e6081611dd8565b840191505092915050565b6000608082019050612e806000830187611ed9565b612e8d6020830186611ed9565b612e9a6040830185611fef565b8181036060830152612eac8184612e32565b905095945050505050565b600081519050612ec681611cfa565b92915050565b600060208284031215612ee257612ee1611cc4565b5b6000612ef084828501612eb7565b91505092915050565b6000612f0482611e44565b91507fffffffffffffffffffffffffffffffffffffffffffffffffffffffffffffffff821415612f3757612f366129bc565b5b600182019050919050565b7f4552433732313a206d696e7420746f20746865207a65726f2061646472657373600082015250565b6000612f78602083611d94565b9150612f8382612f42565b602082019050919050565b60006020820190508181036000830152612fa781612f6b565b9050919050565b7f4552433732313a20746f6b656e20616c7265616479206d696e74656400000000600082015250565b6000612fe4601c83611d94565b9150612fef82612fae565b602082019050919050565b6000602082019050818103600083015261301381612fd7565b905091905056fe4142434445464748494a4b4c4d4e4f505152535455565758595a6162636465666768696a6b6c6d6e6f707172737475767778797a303132333435363738392b2fa26469706673582212202f2c966df5ba90b396ca761982ffbdba95632eda79b0fc21f1e271eb2ef3797464736f6c634300080900333c73766720786d6c6e733d27687474703a2f2f7777772e77332e6f72672f323030302f73766727207072657365727665417370656374526174696f3d27784d696e594d696e206d656574272076696577426f783d273020302033353020333530273e3c7374796c653e2e62617365207b2066696c6c3a2077686974653b20666f6e742d66616d696c793a2073657269663b20666f6e742d73697a653a20323470783b207d3c2f7374796c653e3c726563742077696474683d273130302527206865696768743d2731303025272066696c6c3d2727202f3e3c7465787420783d273530252720793d273530252720636c6173733d27626173652720646f6d696e616e742d626173656c696e653d276d6964646c652720746578742d616e63686f723d276d6964646c65273e",
  "linkReferences": {},
  "deployedLinkReferences": {}
}